:030000000201BA40
:0C01BA00787FE4F6D8FD75810A0202018E
:0403A7000209000047
:1002DE00E4FDFCC3ED9FEE6480F8EC64809850154D
:1002EE00E4FBFA0BBB00010ABA03F8BBE8F50DBD3F
:0502FE0000010C80DE90
:0103030022D7
:05001D008E098F0A228C
:10037100C2AF758920758DFDD28EC29FD29ED2AF3C
:010381002259
:0C0003007F7E12000F7F0412000F7F416F
:0E000F00C2ACC2998F993099FDC299D2AC2231
:10035E00120304FF600C12000F740129F9E43AFA3B
:03036E0080EE22FC
:0300230002039D38
:0A039D00C2ACC298859908D2AC32B8
:10031D00AD07AC06120003E4FF12000FAF0512008B
:06032D000F7FEF02000F3C
:10002600EF24CF70030200D124FE70030200E42403
:1000360033B4090040030200FD900046F8282873F7
:1000460002006102008102008E02009A0200A702ED
:1000560000B50200C3020068020075120003E4FF47
:100066008039120003E4FF12000F7F020200F5122E
:100076000003E4FF12000F7F0380747F7E12000FDF
:100086007F0212000F1F80677F7E12000F7F021211
:10009600000F805B7F7E12000F7F0212000F0F8021
:1000A6004E7F7E12000F7F0212000F7F0480407F7A
:1000B6007E12000F7F0212000F7F0580327F7E12B4
:1000C600000F7F0212000F7F0680247F7E12000F32
:1000D6007F0312000F7F3112000F7F1480117F7E85
:1000E60012000F7F0312000F7F3312000F7F0112E1
:0800F600000F7FEF12000F2242
:100333007F331200267F31120026C2AC7F647E0019
:060343001202DED2AC2222
:100246001202B21203711203337F647E001202DEC1
:10025600E50970FCE50A14600F146011146013249C
:100266000370ED12039280E81200FE80E31203820F
:0702760080DE12027D80D939
:1002B200C280120349C2A0C2A1C2A2C2A3C2A4C2E6
:1002C200A5C2A6C2A7C283C284D285C286D287C271
:0C02D200B2D2B3D2B5C2B4C2B6D2B722C9
:0B0392003080077F017E0012001D225A
:10034900D290D291D292D293D294D295D296D29778
:05035900D281D28222D6
:1000FE00E4FFFE120349EE70FAEFB40B0050F490D9
:10010E000114F828287302013502014002014B0246
:10011E00015602016102016C0201770201830201A4
:10012E00920201A10201B0C29030A0C77E007F01F1
:10013E0080C1C29130A1BC7E007F0280B6C29230D7
:10014E00A2B17E007F0380ABC29330A3A67E007F58
:10015E000480A0C29430A49B7E007F058095C2953A
:10016E0030A5907E007F06808AC29630A6857E00DE
:10017E007F07020101C29720A7030201017E007FC3
:10018E0008020101C2812083030201017E007F0962
:10019E00020101C2822084030201017E007F0A0255
:0B01AE000101C2857F027E0012001DCF
:0101B9002223
:1003820020B20C308609C2877F037E0012001D2234
:10027D00E4FFFED2B3D2B5EE70F9EF146012146044
:10028D001A240270EEC2B330B4E97E007F0180E320
:10029D00C2B530B6DE7E007F0280D87F047E0012AC
:0402AD00001DC2B7B7
:0102B100222A
:1001C600020246E493A3F8E493A34003F68001F207
:1001D60008DFF48029E493A3F85407240CC8C3333A
:1001E600C4540F4420C8834004F456800146F6DF09
:1001F600E4800B01020408102040809003A7E47EEF
:10020600019360BCA3FF543F30E509541FFEE493FD
:10021600A360010ECF54C025E060A840B8E493A3C4
:10022600FAE493A3F8E493A3C8C582C8CAC583CAEF
:10023600F0A3C8C582C8CAC583CADFE9DEE780BEA7
:0103AB000051
:10030400BB010689828A83E0225002E722BBFE02F7
:09031400E32289828A83E493222A
:00000001FF
