:030000000201B941
:0C01B900787FE4F6D8FD75811202020088
:1003B400021100000208FFFF020AFFFF020CFFFF08
:0403C400020EFFFF27
:10036200E4FDFCC3ED9FEE6480F8EC6480985015C8
:10037200E4FBFA0BBB00010ABA03F8BBE8F50DBDBA
:0503820000010C80DE0B
:010387002253
:05001D008E118F12227C
:1003DC00C2AF758920758DFDD28EC29FD29ED2AFD1
:0103EC0022EE
:0C0003007F7E12000F7F0412000F7F416F
:0E000F00C2ACC2998F993099FDC299D2AC2231
:1003C9001202F1FF600C12000F740129F9E43AFAE4
:0303D90080EE2291
:030023000203EDE8
:0A03ED00C2ACC298859910D2AC3260
:10038800AD07AC06120003E4FF12000FAF05120020
:060398000F7FEF02000FD1
:10002600EF24CF70030200D124FE70030200E42403
:1000360033B4090040030200FD900046F8282873F7
:1000460002006102008102008E02009A0200A702ED
:1000560000B50200C3020068020075120003E4FF47
:100066008039120003E4FF12000F7F020200F5122E
:100076000003E4FF12000F7F0380747F7E12000FDF
:100086007F0212000F1F80677F7E12000F7F021211
:10009600000F805B7F7E12000F7F0212000F0F8021
:1000A6004E7F7E12000F7F0212000F7F0480407F7A
:1000B6007E12000F7F0212000F7F0580327F7E12B4
:1000C600000F7F0212000F7F0680247F7E12000F32
:1000D6007F0312000F7F3112000F7F1480117F7E85
:1000E60012000F7F0312000F7F3312000F7F0112E1
:0800F600000F7FEF12000F2242
:10039E007F331200267F31120026C2AC7F647E00AE
:0603AE00120362D2AC2232
:1002A9001203371203DC12039E7F647E001203627D
:1002B900E51270FCE51170F81202451200FEE5091D
:1002C9006401450870EAE50D6401450C70E2E50F2B
:1002D9006401450E70DAE50F6401450E70D2C2A4BF
:0802E9007F01FE12001D80C818
:10033700C280C281C282C283C284C285C286C2878A
:10034700C2A0C2A1D290D291D292D293D294D29586
:0B035700D296D297D2A2D2A3D2A42249
:10024500308007750800750901223081077508009F
:1002550075090222308207750A00750B0122308369
:1002650007750A00750B0222308407750A00750BA5
:100275000322308507750C00750D01223086077540
:100285000C00750D0222308707750C00750D0322D1
:1002950030A007750E00750F012230A106750E00FE
:0402A500750F0222AD
:1000FE00E5098508F012030A011C00010122000225
:10010E000116FFFF00000126C290C291800AD29014
:10011E00C2918004C290D291E50B850AF012030AB7
:10012E0001460001014E0002015600030142FFFF8D
:10013E000000015CC2928002D292C293C294800EE1
:10014E00C292D293C2948006C292C293D294E50D0B
:10015E00850CF012030A017C000101840002018C5F
:10016E0000030178FFFF00000192C2958002D29534
:10017E00C296C297800EC295D296C2978006C2953D
:10018E00C296D297E50F850EF012030A01AF000159
:10019E0001B4000201AAFFFF000001B8C2A2C2A36F
:0B01AE0022D2A2C2A322C2A2D2A3222E
:1001C5000202A9E493A3F8E493A34003F68001F2A5
:1001D50008DFF48029E493A3F85407240CC8C3333B
:1001E500C4540F4420C8834004F456800146F6DF0A
:1001F500E4800B01020408102040809003B4E47EE3
:10020500019360BCA3FF543F30E509541FFEE493FE
:10021500A360010ECF54C025E060A840B8E493A3C5
:10022500FAE493A3F8E493A3C8C582C8CAC583CAF0
:10023500F0A3C8C582C8CAC583CADFE9DEE780BEA8
:0103C8000034
:1002F100BB010689828A83E0225002E722BBFE020B
:09030100E32289828A83E493223D
:10030A00D083D082F8E4937012740193700DA3A382
:10031A0093F8740193F5828883E473740293B5F0B9
:0D032A00067403936860E9A3A3A3A380D821
:00000001FF
