:030000000200FEFD
:0C00FE00787FE4F6D8FD75810A02014508
:0402EB000209000004
:10022400E4FDFCC3ED9FEE6480F8EC648098501507
:10023400E4FBFA0BBB00010ABA03F8BBE8F50DBDF9
:0502440000010C80DE4A
:010249002292
:05001D008E098F0A228C
:1002C500C2AF758920758DFDD28EC29FD29ED2AFE9
:0102D5002206
:0C0003007F7E12000F7F0412000F7F416F
:0E000F00C2ACC2998F993099FDC299D2AC2231
:1002B20012026DFF600C12000F740129F9E43AFA80
:0302C20080EE22A9
:030023000202E1F5
:0A02E100C2ACC298859908D2AC3275
:10028600AD07AC06120003E4FF12000FAF05120023
:060296000F7FEF02000FD4
:10002600EF24CF70030200D124FE70030200E42403
:1000360033B4090040030200FD900046F8282873F7
:1000460002006102008102008E02009A0200A702ED
:1000560000B50200C3020068020075120003E4FF47
:100066008039120003E4FF12000F7F020200F5122E
:100076000003E4FF12000F7F0380747F7E12000FDF
:100086007F0212000F1F80677F7E12000F7F021211
:10009600000F805B7F7E12000F7F0212000F0F8021
:1000A6004E7F7E12000F7F0212000F7F0480407F7A
:1000B6007E12000F7F0212000F7F0580327F7E12B4
:1000C600000F7F0212000F7F0680247F7E12000F32
:1000D6007F0312000F7F3112000F7F1480117F7E85
:1000E60012000F7F0312000F7F3312000F7F0112E1
:0800F600000F7FEF12000F2242
:10029C007F331200267F31120026C2AC7F647E00B1
:0602AC00120224D2AC2274
:1001F50012024A1202C512029C7F647E001202247A
:10020500E50970FCE50A14600C14600E240270F018
:0F0215001202D680EB1201C080E612018A80E14E
:10024A00C280C281C282C283C284C285C286D2A04F
:10025A00C287D2A1C291D2A2C2A3D2A4C2A5C2A667
:03026A00D2A722F6
:0B02D6003080077F017E0012001D2217
:1001C000E4FFFEFDFCFBFA3081047E007F013082FB
:1001D000047C007D013083047A007B01EF64014ED2
:1001E00070E5ED64014C70DFEB64014A70D97F0269
:0401F000FE12001DDE
:0101F40022E8
:10018A0030840A308507308604C2A08002D2A030AB
:10019A008704C2A18002D2A1309104C2A28002D2F5
:1001AA00A230A3DC30A5D930A6D6C2A4C2A77F0349
:0601BA007E0012001D2270
:10010A000201F5E493A3F8E493A34003F68001F215
:10011A0008DFF48029E493A3F85407240CC8C333F6
:10012A00C4540F4420C8834004F456800146F6DFC5
:10013A00E4800B01020408102040809002EBE47E68
:10014A00019360BCA3FF543F30E509541FFEE493BA
:10015A00A360010ECF54C025E060A840B8E493A381
:10016A00FAE493A3F8E493A3C8C582C8CAC583CAAC
:10017A00F0A3C8C582C8CAC583CADFE9DEE780BE64
:0102EF00000E
:10026D00BB010689828A83E0225002E722BBFE028F
:09027D00E32289828A83E49322C2
:00000001FF
